:040000000DEF00F010
:0400080028EF12F0DB
:06001800FF00ECEF11F007
:101600000041444320526573756C743A2025640A86
:031610000D0000CA
:1016140023C539F524C53AF525C53BF526C53CF562
:1016240027C53DF528C53EF529C53FF52AC540F532
:10163400010E40AE000E436E435010E0401E3F1EAC
:101644003E1E3D1E3C1E3B1E3A1E396C000E3A22C5
:101654003B223C223D223E223F22402263BF04D053
:10166400635107E1620505E2000E366E010E356E28
:1016740004D062C535F563C536F560C537F561C577
:1016840038F543500DE03706D8A03806435003E13F
:10169400346A2B0E02D0346A2D0E336E33C543F5F3
:1016A400426A1F0E416E956B66D090D839C504F519
:1016B4003AC505F53BC506F53CC507F53DC508F536
:1016C4003EC509F53FC50AF540C50BF50A0E0C6E7B
:1016D4000D6A0E6A0F6A106A116A126A136A94EC30
:1016E4000CF004C52BF505C52CF506C52DF507C56D
:1016F4002EF508C52FF509C530F50AC531F50BC51A
:1017040032F52BC516F52CC517F5A7EC11F01650BC
:10171400300FDF6E3506D8A036063706D8A0380657
:1017240039C504F53AC505F53BC506F53CC507F5CD
:101734003DC508F53EC509F53FC50AF540C50BF59D
:101744000A0E0C6E0D6A0E6A0F6A106A116A126A2A
:10175400136AF2EC0BF004C539F505C53AF506C574
:101764003BF507C53CF508C53DF509C53EF50AC579
:101774003FF50BC540F542BE14D0425002E141048E
:1017840010E339503A103B103C103D103E103F100E
:1017940040108BE136BE05D0365087E13504D8B011
:1017A40084D7435003E012D843C5DFF421C516F5AE
:1017B40022C517F5760E4124186E050E4220196EC7
:1017C40037C51AF538C51BF596EF10F04106D8A0B9
:1017D4004206760E4124D96E050E4220DA6E1200BE
:1017E400156A13AE12D0131E121E111E101E0F1EE8
:1017F4000E1E0D1E0C6C000E0D220E220F22102246
:10180400112212221322010E156E0BAE12D00B1EE2
:101814000A1E091E081E071E061E051E046C000E65
:10182400052206220722082209220A220B22010E7F
:10183400151A166A176A186A196A1A6A1B6A1C6AE0
:101844001D6A0C500D100E100F10101011101210F4
:10185400131045E0010E146E0AD0D8900C360D36E4
:101864000E360F361036113612361336142A13AECE
:10187400F4D7D89016361736183619361A361B365A
:101884001C361D360C50045C0D5005580E5006587D
:101894000F500758105008581150095812500A5840
:1018A40013500B5811E30C50045E0D50055A0E50A2
:1018B400065A0F50075A1050085A1150095A12501C
:1018C4000A5A13500B5A1680D8901332123211321E
:1018D40010320F320E320D320C32142ECAD715507C
:1018E40010E01D1E1C1E1B1E1A1E191E181E171E7C
:1018F400166C000E1722182219221A221B221C22EF
:101904001D2216C504F517C505F518C506F519C534
:1019140007F51AC508F51BC509F51CC50AF51DC54B
:101924000BF51200156A0BAE03D06CD8010E156EC0
:1019340013AE10D0131E121E111E101E0F1E0E1EEB
:101944000D1E0C6C000E0D220E220F2210221122ED
:10195400122213220C500D100E100F101010111023
:10196400121013103BE0010E146E0AD0D8900C36FE
:101974000D360E360F361036113612361336142A3B
:1019840013AEF4D70C50045C0D5005580E50065895
:101994000F500758105008581150095812500A583F
:1019A40013500B5810E30C50045E0D50055A0E50A2
:1019B400065A0F50075A1050085A1150095A12501B
:1019C4000A5A13500B5AD890133212321132103271
:1019D4000F320E320D320C32142ED4D7155001E0D2
:1019E40011D804C504F505C505F506C506F507C5F2
:1019F40007F508C508F509C509F50AC50AF50BC5B3
:101A04000BF512000B1E0A1E091E081E071E061ED9
:101A1400051E046C000E0522062207220822092254
:101A24000A220B22000C5E5006E1BE6AC09A010E27
:101A34000501706F5E6E5E0402E0D0EF0EF0100ED2
:101A440015EC12F050D8716F010E966FEAC39BF536
:101A5400EBC39CF5040E9D6FD8909C339B339D2F54
:101A6400FBD79BC597F59CC598F56CEC12F0530E0B
:101A7400E82EFED700F0050171077129F8E170C561
:101A84009BF5010E9B179B3B9B47BE509B19DF0B9D
:101A940023D8010E9B179B47BE509B19FD0B1CD8E6
:101AA40028D89B479B47BE509B19FB0B15D8D89051
:101AB4009B331FD89B3B9B47C0509B19DF0B9B1943
:101AC400C06ED8907037100E701902E0D0EF0EF08F
:101AD400010E706FD0EF0EF09B19BE6E70C59BF5B2
:101AE400D8909B33120005C504F5056A045005011E
:101AF4001200D8909B33010E9B17010C64D8DFC4ED
:101B0400F6F45BD8250A4CE15ED8DF2A0501606B48
:101B1400616B6269636957D8DF50546E54C5F6F43B
:101B24004CD8640A05E054C5F6F447D8690A35E18F
:101B340048C5D9F449C5DAF4DFC44AF5020EDE26F5
:101B4400DFC44BF5000EDD224AC5D9F44BC5DAF4E7
:101B5400DEC44CF5DDC44DF54DBEFF0E4E6E4F6E2A
:101B6400506E516E526E536E54282DD8DF6E44C59C
:101B740021F545C522F54CC523F54DC524F54EC5C3
:101B840025F54FC526F550C527F551C528F552C58D
:101B940029F553C52AF50AEF0BF015D8DF2A1200F0
:101BA40012D8DFC4F6F409D8066E076A44C508F5EE
:101BB40045C509F510EC10F0F0D7160EF76EF86A6B
:101BC4000800F550120046C5D9F447C5DAF41200EE
:101BD4005E5002E1DBEC0EF05E0402E0D0EF0EF0AA
:101BE400AA0E056E550E046EF5EC12F0100E15ECEF
:101BF40012F075EC0DF06D6F046A056A380E066E0E
:101C04006DC507F5E8EC10F0010E05013CD86CEC4D
:101C140012F0046A056A380E066E87EC12F00501AC
:101C24006C6F07EC13F06CC59BF5010E9B179B3B87
:101C34009B47BE509B19DF0B1AD8010E9B179B477D
:101C4400BE509B19FD0B13D819D89B479B47BE5018
:101C54009B19FB0B0CD8D8909B3310D89B3B9B470C
:101C6400C0509B19DF0B9B19C06ED0EF0EF09B196F
:101C7400BE6E6CC59BF5D8909B331200D8909B33F5
:101C8400010E9B17010C966FEAC397F5EBC398F509
:101C940012005E5007E14AD805016F6F0DEC13F096
:101CA400010E5E6E5E042FE1B6A8FED7B698DBEC9B
:101CB40012F00501D8906F37100E6F1902E1010E72
:101CC4006F6F6FC506F5010E0616063A0646BE503E
:101CD4000618DF0B1FD8010E06160646BE5006185E
:101CE400FD0B18D81ED806460646BE500618FB0B38
:101CF40011D8D890063215D8063A0646C0500618B0
:101D0400DF0B0618C06E5F50D8B412000AEC13F053
:101D14005E6A12000618BE6E6FC506F5D8900632CC
:101D24001200D8900632010E0616010CBE6AC09A43
:101D3400BE8A010C5E5001E13CD85E042FE1100E16
:101D440015EC12F075EC0DF0726F010E45EC0EF00F
:101D54006CEC12F072C59BF5010E05019B179B3BC1
:101D64009B47BE509B19DF0B1DD8010E9B179B4749
:101D7400BE509B19FD0B16D821D89B479B47BE50DC
:101D84009B19FB0B0FD8D8909B3318D89B3B9B47D0
:101D9400C0509B19DF0B9B19C06E00D05F50D8A4B4
:101DA4005E6A12009B19BE6E72C59BF5D8909B3378
:101DB4001200BE6AC09A010E5E6E010CD8909B336D
:101DC400010E9B17010CD6EC11F00201166BAB9EB1
:101DD4000A0E0501756FBFEC11F01ED09EEC12F0D7
:101DE40035D0C0EC10F032D02DEC0FF02FD09CEC9D
:101DF4000EF02CD015EC0DF029D0DEEC0FF026D02F
:101E04004BEC0EF023D08FEC11F020D044EC11F009
:101E14001DD0EAEC0DF01AD075519E6F9F6B9F5147
:101E240015E19E51010ADAE0030ADBE0010ADCE075
:101E3400070ADDE0010ADEE0030ADFE0010AE0E070
:101E44000F0AE1E0010AE2E0030AE3E05F50C3E0C5
:101E5400A9EC12F0C0D75E5004E198EC0EF05D6E70
:101E64005E6E5E0402E0D0EF0EF0520E046E2A0E97
:101E7400E82EFED7042EFCD7D8905D36100E5D18E0
:101E840002E1010E5D6E5DC504F5010E0416043A0F
:101E94000446BE500418DF0B1AD8010E041604467B
:101EA400BE500418FD0B13D819D804460446BE507E
:101EB4000418FB0B0CD8D890043210D8043A04460A
:101EC400C0500418DF0B0418C06ED0EF0EF00418D5
:101ED400BE6E5DC504F5D89004321200D890043269
:101EE400010E0416010C6E0502E1100E6E6FD890FF
:101EF4006E336EC501F5010E0116013A0146BE505E
:101F04000118DF0B19D8010E01160146BE50011845
:101F1400FD0B12D818D801460146BE500118FB0B20
:101F24000BD8D89001320FD8013A0146C05001189D
:101F3400DF0B0118C06E12000118BE6E6EC501F5EC
:101F4400D89001321200D8900132010E0116010C12
:101F5400BE6ABF6AC06A190EC66EF00EC76E9F0EC7
:101F6400C86E110E0401006FD00E086F8F0E106F33
:101F7400016B096B116B0201876B866B0401026BA9
:101F84000A6B126B370E036FF00E0B6F13693F0E63
:101F9400046FF00E0C6F14690D0E0201726F100EB7
:101FA400176F0401056B066B076B0D6B0E6B0F6BE4
:101FB400156B166B176B12005E500BE1BE6AC09A6C
:101FC40014EC13F00A0E0201166F04EC13F0010E68
:101FD4005E6E5E0418E1100E15EC12F004C56AF58D
:101FE40005C56BF5010E0501966F6AC597F56BC5BE
:101FF40098F56CEC12F06AC504F56BC505F5EBECCD
:1020040012F012EC13F05F50D8B4120001EC13F08C
:1020140016EC13F00201166B5E6A120008500910E8
:1020240003E00850091003E10650CDEF12F01ED86A
:10203400DE50DE1011E01AD810EE03F00850E1264D
:102044000950E222DE50E65CE650800A0E6EDE5055
:10205400800A0E58D8B0120020EE03F00850D9269A
:102064000950DA22DE2A000EDD22000C20EE09F0EF
:102074000850D9260950DA221200606A020E616EF5
:10208400626A870E636E130E646E656A666A676AB7
:10209400686A6A6AA00E6B6E0F0E6C6EC40E6D6E6B
:1020A400090E6E6EB79CB79E67906792AC9EAC9C0F
:1020B400000E046A056A1AEC13F0000E046A056A3D
:1020C40019EC13F0000E046A056A1BEC13F0800E81
:1020D400696E800C0201A16BA26BA36BA46BA56B50
:1020E400A66BA76BA86BA96BAA6BB00EAB6F800E27
:1020F400AC6F080EAD6F0C0EAE6FAF6B200EB06FF1
:10210400B16BB26BB36B046A056ABBEC12F0046A80
:10211400056AB2EC12F0000E046A056A18EC13F0BA
:102124000501686B696B12001BBE05D01AC51FF54B
:102134001BC520F502D01F6A206A1D6A1E6A0BD0D7
:10214400076A200E066E16C508F517C509F510ECCA
:1021540010F01D4A1E2A1F501D5C1E50800A1C6E62
:102164002050800A1C58ECE318C50FF519C510F56A
:1021740016C511F517C512F576EF11F05E5006E19C
:10218400BE6AC09A0DEC13F0010E5E6E5E0417E198
:10219400B6A8FED7B698DBEC12F00501732B030E3C
:1021A40073190DE1010EBEAA000EFF0A066E063A6F
:1021B4000646BE500618DF0B0618BE6E736B5F50E2
:1021C400D8B412000AEC13F05E6A1200000ED6BEF8
:1021D400010E086E06C545F005C544F004C543F07C
:1021E40007C546F000014151F80B0309416FD69E23
:1021F40000015CC542F05B50426F408108B002D0E0
:10220400D69E01D0D68EF80E00014117F80C156B3E
:10221400166B010E176F0B0E136FDB0E126F12513C
:1022240013C306F5076A06C507F5066A0610050115
:10223400A46F0750A56F400E046E260E056EE6ECE3
:1022440012F0B698B69A0301146B12000301D96B0D
:10225400DA6BDB6BDC6BDF6BE06BE56BE76BEC6B1A
:10226400EE6BEF6BF06BF16BF26BF46B100EF56FC2
:10227400F66BF76BF86BF96BFA6B840EF36FB4942F
:10228400B590840C5E500BE1BE84BE8AC09ABE92A7
:1022940000017881030000F000F0010E5E6E5E0420
:1022A40002E0D0EF0EF0BE94BE9AC08ABE82000156
:1022B4007891D0EF0EF057C55AF50ED055C544F5B8
:1022C40056C545F55A0E466E050E476E58C548F577
:1022D40059C549F580EC0DF05AC5F6F4DFEC0DF064
:1022E400EDE1556A566A1200146A156A0BD013C5DB
:1022F40006F5076A11C508F512C509F510EC10F0CA
:10230400144A152A14500F24D96E15501020DA6E71
:10231400DF50136E1350EBE112005E500FE198ECA6
:102324000EF005016E6FB69ED68EAB8EEA0E046E6D
:102334001E0E056EF0EC12F0010E5E6E5F50D8B406
:102344001200AB9ED69E5E6A120017BE04D01750D0
:102354000FE116040DE216C518F517C519F5181E78
:10236400191E184A192A18C516F519C517F51200A9
:1023740016C516F517C517F51200050174510EE1BF
:10238400D0B81200110E046E3A0EE82EFED7042EB9
:10239400FCD700D0010E0501746F010CD0A8120007
:1023A400746B010E5F6E010C93EC12F0AAEC0FF04B
:1023B40028EC11F010EC13F03FEC10F03BEC12F0B1
:1023C40009EC11F04DEC12F06CEC10F0D5EC12F0BD
:1023D40001EF12F001EE60F1360EEE6AE806FDE15F
:1023E4005F6A5E6A5D6A5C6A5B6A0401080E5D6F1F
:1023F400000E5E6F000E5F6F0001E5EF0EF0D69ADF
:10240400B490D680000E046A056A1EEC13F0B990ED
:10241400D682000E046A056A1DEC13F0BD90D684C2
:10242400046A056A000C086E08C5ECF30301F38F17
:10243400F39DF381F3B1FED7EB51076E066AEA51BF
:102444000624046E000E0720056E1200FAC402F57D
:10245400FBC403F5A8BEB3AE02D022EC13F0ABBEAE
:10246400B6AE02D05DEC12F003C5FBF402C5FAF47B
:102474001100F30E0301196F186B480E1B6F3E0E0B
:10248400046E260E056EF0EC12F0B69EAB8E800E36
:1024940003011A6F800C010E206F1F6B216B1D69E5
:1024A4001C6B420E046E260E056EE1EC12F0B6961D
:1024B400800E1E6F800CB69E0501A051A111D8B4E8
:1024C40012000500FA6EA051FD6EA151FE6EFF6A66
:1024D400FA501200970E996F050E9A6F556A566A54
:1024E40096C557F5990E586E050E596E5DEF11F0AD
:1024F400030114A505D0149103D81481120000D04F
:1025040005C513F304C512F3120006C545F005C54D
:1025140044F004C543F0F80E0001411740814651D0
:102524001200620E0001AD6FAF6B200EB36F010E8F
:10253400B16FB06BAC6B12005E5002E1DBEC0EF0DD
:102544005E0402E0D0EF0EF0BE8AD0EF0EF05F6AB8
:102554000501752B0A0E75650A0C010E756F010CC9
:1025640004500510D8B4120004C564F505C565F51A
:10257400120004500510D8B4120004C566F505C550
:1025840067F51200046A0201B0BBABAB02D0010EC6
:10259400046E04501200056EC4EC12F00009FCE055
:1025A4000550FAEF12F0180E0001786F170E796FCC
:1025B400170CA4C504F5A5C505F57AEF12F004C5FA
:1025C400A6F505C5A7F5120004C5A2F505C5A3F532
:1025D400120004C56BF405C56CF4120004C5A0F523
:1025E40005C5A1F5120005C55BF504C55CF512002F
:1025F400046E04C5A3F212000001419F12000301FE
:102604001E9F120003011E8F12005B6A5C6A120097
:10261400030114911200030114811200FEEF12F061
:1026240069841200698E1200699E12001200120061
:102634001200120012001200120012001200120006
:02264400120082
:020000040020DA
:10000000FF0FFF0FFF0FFF0FFF0FFF0FFF0FFF0F80
:10001000FF0FFF0FFF0FFF0FFF0FFF0FFF0FFF0F70
:10002000FF0FFF0FFF0FFF0FFF0FFF0FFF0FFF0F60
:10003000FF0FFF0FFF0FFF0FFF0FFF0FFF0FFF0F50
:020000040030CA
:090000008C1DF7F7ACCFFFFFFFE8
:00000001FF
