:020000040000FA
:040000000DEF00F010
:040008004EEF13F0B4
:06001800FF00B7EF12F03B
:101600000041444320526573756C743A2025640A86
:031610000D0000CA
:1016140021C539F522C53AF523C53BF524C53CF56A
:1016240025C53DF526C53EF527C53FF528C540F53A
:10163400010E40AE000E376E386A3750381010E095
:10164400401E3F1E3E1E3D1E3C1E3B1E3A1E396C74
:10165400000E3A223B223C223D223E223F224022DF
:101664007DAF7E937DBF04D07D5106E17C0504E20D
:10167400346A010E336E04D07CC533F57DC534F570
:101684007AC535F57BC536F53750381002E17EA5AD
:1016940003D03506D8A03606426A1F0E416EB46BDD
:1016A40069D04106D8A04206AFD839C502F53AC57B
:1016B40003F53BC504F53CC505F53DC506F53EC53A
:1016C40007F53FC508F540C509F50A0E0A6E0B6A11
:1016D4000C6A0D6A0E6A0F6A106A116A40EC0DF00A
:1016E40002C529F503C52AF504C52BF505C52CF556
:1016F40006C52DF507C52EF508C52FF509C530F526
:1017040029C514F52BC515F522EC12F01450300F31
:10171400DF6E3306D8A034063506D8A0360639C5A0
:1017240002F53AC503F53BC504F53CC505F53DC5D1
:1017340006F53EC507F53FC508F540C509F50A0E8F
:101744000A6E0B6A0C6A0D6A0E6A0F6A106A116AD5
:101754000DEC0CF002C539F503C53AF504C53BF5AB
:1017640005C53CF506C53DF507C53EF508C53FF57D
:1017740009C540F542BE1DD0425002E1410419E3BF
:1017840039503A103B103C103D103E103F104010B1
:1017940088E134BE05D0345084E13304D8B081D715
:1017A40036BE07D0365002E1350403E305017EB3AB
:1017B40078D73750381003E105017EA510D04106D3
:1017C400D8A042063750381003E1326A2B0E02D0FB
:1017D400326A2D0E316E18D86100C4F4DFF41FC5CF
:1017E40014F520C515F5950E4124166E050E4220FC
:1017F400176E35C518F536C519F5ADEC0FF014C5DF
:101804001FF515C520F51200950E4124D96E050E5D
:101814004220DA6E1200136A11AE12D0111E101E8D
:101824000F1E0E1E0D1E0C1E0B1E0A6C000E0B222C
:101834000C220D220E220F2210221122010E136EF1
:1018440009AE12D0091E081E071E061E051E041E20
:10185400031E026C000E0322042205220622072224
:1018640008220922010E131A146A156A166A176AE5
:10187400186A196A1A6A1B6A0A500B100C100D10A8
:101884000E100F101010111045E0010E126E0AD048
:10189400D8900A360B360C360D360E360F36103607
:1018A4001136122A11AEF4D7D890143615361636DE
:1018B4001736183619361A361B360A50025C0B5086
:1018C40003580C5004580D5005580E5006580F502C
:1018D4000758105008581150095811E30A50025E75
:1018E4000B50035A0C50045A0D50055A0E50065A08
:1018F4000F50075A1050085A1150095A1480D890A2
:10190400113210320F320E320D320C320B320A32D7
:10191400122ECAD7135010E01B1E1A1E191E181EB1
:10192400171E161E151E146C000E152216221722E1
:10193400182219221A221B2214C502F515C503F513
:1019440016C504F517C505F518C506F519C507F537
:101954001AC508F51BC509F5120078D8250A6BE1EC
:10196400610014F5D9F480D87A6B7B6B7E6B7F6B46
:101974007C697D696BD8640A03E068D8690A43E12D
:10198400610014F5D9F470D861001CF5D9F4610034
:1019940020F5DAF461007CF349F5020EDE266100DD
:1019A4007CF34AF5000EDD22610024F5D9F46100D0
:1019B40028F5DAF4610078F34BF5610074F34CF523
:1019C4004CBEFF0E4D6E4E6E4F6E506E516E526E8B
:1019D40043C51FF544C520F54BC521F54CC522F57B
:1019E4004DC523F54EC524F54FC525F550C526F53F
:1019F40051C527F552C528F50AEC0BF01FC543F570
:101A040020C544F5120022D8250A0EE1610014F520
:101A1400D9F42AD8056A250E046E2BD8CEEC10F022
:101A2400446A010E436E010C610014F5D9F41CD80C
:101A3400436A446A12000AD8046E056A1AD8CEECC6
:101A440010F0610014F5D9F40FD8EAD7610014F549
:101A5400D9F4610018F5DAF4DFC4F6F4160EF76E63
:101A6400F86A0800F5501200610018F5DAF4DF2A6C
:101A7400120043C506F544C507F51200136A09AE02
:101A840003D06CD8010E136E11AE10D0111E101EAF
:101A94000F1E0E1E0D1E0C1E0B1E0A6C000E0B22BA
:101AA4000C220D220E220F22102211220A500B109A
:101AB4000C100D100E100F10101011103BE0010E41
:101AC400126E0AD0D8900A360B360C360D360E3606
:101AD4000F3610361136122A11AEF4D70A50025CB2
:101AE4000B5003580C5004580D5005580E5006580E
:101AF4000F500758105008581150095810E30A5055
:101B0400025E0B50035A0C50045A0D50055A0E50E5
:101B1400065A0F50075A1050085A1150095AD890B3
:101B2400113210320F320E320D320C320B320A32B5
:101B3400122ED4D7135001E011D802C502F503C503
:101B440003F504C504F505C505F506C506F507C581
:101B540007F508C508F509C509F51200091E081E90
:101B6400071E061E051E041E031E026C000E032221
:101B7400042205220622072208220922000C5D50B5
:101B840006E1BE6AC09A010E05018D6F5D6E5D04AB
:101B940002E051EF0FF0100E91EC12F052D88E6F5C
:101BA400010E596E6000A8FFC7F56000ACFFC8F5D0
:101BB400040EC96FD890C833C733C92FFBD7C7C524
:101BC4005AF5C8C55BF5E7EC12F0530EE82EFED7C4
:101BD40000F005018E078E29F8E18DC5C7F5010EC9
:101BE400C717C73BC747BE50C719DF0B23D8010E21
:101BF400C717C747BE50C719FD0B1CD828D8C747FD
:101C0400C747BE50C719FB0B15D8D890C7331FD888
:101C1400C73BC747C050C719DF0BC719C06ED89060
:101C24008D37100E8D1902E051EF0FF0010E8D6FFC
:101C340051EF0FF0C719BE6E8DC5C7F5D890C733E5
:101C4400120003C502F5036A025005011200D89080
:101C5400C733010EC717010C5D5002E15DEC0FF0B4
:101C64005D0402E051EF0FF0100E91EC12F023EC42
:101C74000EF08A6F036A026A8AC504F577EC11F0E4
:101C840033D8E7EC12F0036A026A13EC13F005018F
:101C9400896F89C55CF5010E5C165C3A5C46BE50E2
:101CA4005C18DF0B1AD8010E5C165C46BE505C183B
:101CB400FD0B13D822D85C465C46BE505C18FB0B67
:101CC4000CD8D8905C3219D85C3A5C46C0505C1889
:101CD400DF0B5C18C06E51EF0FF05C18BE6E89C547
:101CE4005CF5D8905C321200010E596E6000A8FFBA
:101CF4005AF56000ACFF5BF51200D8905C32010E1F
:101D04005C16010C5D5006E145D88C6F7FEC13F036
:101D1400010E5D6E5D042FE1B6A8FED7B69848ECBF
:101D240013F00501D8908C37100E8C1902E1010EC6
:101D34008C6F8CC504F5010E0416043A0446BE509B
:101D44000418DF0B20D8010E04160446BE500418F4
:101D5400FD0B19D824D804460446BE500418FB0BC6
:101D640012D8D89004321BD8043A0446C050041840
:101D7400DF0B0418C06E05019351D8B412007CEC3B
:101D840013F05D6A12000418BE6E8CC504F5D89079
:101D940004321200BE6AC09ABE8A0501010CD890B2
:101DA4000432010E0416010C5D5004E1CCEC0EF07B
:101DB400906F5D6E5D0402E051EF0FF0520E026E03
:101DC4002A0EE82EFED7022EFCD70501D8909037B4
:101DD400100E901902E1010E906F90C502F5010EEC
:101DE4000216023A0246BE500218DF0B1AD8010E40
:101DF40002160246BE500218FD0B13D819D802462B
:101E04000246BE500218FB0B0CD8D890023210D8F0
:101E1400023A0246C0500218DF0B0218C06E51EF9E
:101E24000FF00218BE6E90C502F5D890023212006F
:101E3400D8900232010E0216010C5D5001E13BD82C
:101E44005D042DE1100E91EC12F023EC0EF08F6F77
:101E540076EC0EF0E7EC12F08FC55CF5010E5C1623
:101E64005C3A5C46BE505C18DF0B1ED8010E5C1653
:101E74005C46BE505C18FD0B17D822D85C465C4605
:101E8400BE505C18FB0B10D8D8905C3219D85C3A61
:101E94005C46C0505C18DF0B5C18C06E00D00501B6
:101EA4009351D8A45D6A12005C18BE6E8FC55CF5B0
:101EB400D8905C321200BE6AC09A010E5D6E010CAD
:101EC400D8905C32010E5C16010C51EC12F0020148
:101ED400166BAB9E3AEC12F01ED021EC13F035D009
:101EE40028EC11F032D0D6EC0EF02FD01FEC0FF00E
:101EF4002CD0C1EC0DF029D030EC10F026D084ECBD
:101F04000EF023D00AEC12F020D0D8EC11F01DD042
:101F14002EEC0EF01AD09451CA6FCB6BCB5115E155
:101F2400CA51010ADAE0030ADBE0010ADCE0070A2D
:101F3400DDE0010ADEE0030ADFE0010AE0E00F0A67
:101F4400E1E0010AE2E0030AE3E005019351C2E0A3
:101F54002CEC13F0BFD705017EA103D035D8F1ECEA
:101F640011F019BE05D018C51DF519C51EF502D00E
:101F74001D6A1E6A1B6A1C6A0BD0056A200E046E59
:101F840014C506F515C507F5CEEC10F01B4A1C2A3E
:101F94001D501B5C1C50800A1A6E1E50800A1A5871
:101FA400ECE305017EB103D00FD8F1EC11F016C5B6
:101FB40002F517C503F567EC12F01D500224146EE8
:101FC4001E500320156E120016C50DF517C50EF52B
:101FD40014C50FF515C510F51200AC90000E026A79
:101FE400036A8AEC13F0AC92000E026A036A89EC6D
:101FF40013F0AC94000E026A036A8BEC13F0AC96F7
:10200400000E026A036A88EC13F00201A16BA26B52
:10201400A36BA46BA56BA66BA76BA86BA96BAA6B30
:10202400A00EAB6F800EAC6FAD6B0C0EAE6FAF6BD2
:10203400B06BB16BB26BB36B000E026A036A59ECFE
:1020440013F0000E026A036A54EC13F0000E026AE5
:10205400036A5EEC13F00501826B12005D500BE124
:10206400BE6AC09A84EC13F00A0E0201166F79EC72
:1020740013F0010E5D6E5D041EE1100E91EC12F082
:10208400040E5C6ED890033202325C2EFBD702C57C
:1020940080F503C581F5010E596E80C55AF581C5D9
:1020A4005BF5E7EC12F080C502F581C503F534EC6D
:1020B40013F082EC13F005019351D8B4120076ECBE
:1020C40013F086EC13F00201166B5D6A12008B05A7
:1020D40002E1100E8B6FD8908B338BC501F5010E86
:1020E4000116013A0146BE500118DF0B19D8010E42
:1020F40001160146BE500118FD0B12D818D801462E
:102104000146BE500118FB0B0BD8D89001320FD8F2
:10211400013A0146C0500118DF0B0118C06E1200CD
:102124000118BE6E8BC501F5D89001321200D8900B
:102134000132010E0116010CBE6ABF6AC06A190E93
:10214400C66EF00EC76E9F0EC86E0401006B086B5E
:10215400010E106F016B096B116B026B0A6B126B32
:10216400370E036FF00E0B6F13693F0E046FF00E02
:102174000C6F14690D0E0201726F100E176F0A0EA8
:10218400166F0401056B066B076B0D6B0E6B0F6B03
:10219400156B166B176B12000650071003E0065000
:1021A400071003E1045072EF13F01ED8DE50DE1066
:1021B40011E01AD810EE02F00650E1260750E22290
:1021C400DE50E65CE650800A0C6EDE50800A0C5845
:1021D400D8B0120020EE02F00650D9260750DA22B9
:1021E400DE2A000EDD22000C20EE04F00650D92673
:1021F4000750DA221200606A030E616E626A636A33
:10220400100E646E090E656E666A676A686A6A6AA9
:10221400CD0E6B6E0C0E6C6E6D6A080E6E6EB79CF6
:10222400B79E67906792AC9EAC9C000E026A036AEC
:102234008DEC13F0000E026A036A8CEC13F0000EAE
:10224400026A036A8EEC13F0696A12005D5006E1BB
:10225400BE6AC09A7FEC13F0010E5D6E5D0417E157
:10226400B6A8FED7B69848EC13F00501912B030EDF
:1022740091190DE1010EBEAA000EFF0A046E043A84
:102284000446BE500418DF0B0418BE6E916B0501A2
:102294009351D8B412007CEC13F05D6A120055C55A
:1022A40058F5786B796B13D053C543F554C544F591
:1022B400580E456E050E466E56C547F557C548F58A
:1022C400AFEC0CF0435005017827445079236100AA
:1022D40060F5F6F4160EF76EF86A0800F550E4E1BE
:1022E40078C553F579C554F51200000ED6BE010E1B
:1022F400056E380E0001456F61000CF444F0610076
:1023040008F443F0610010F446F04151F80B03095E
:10231400416FD69E550E426FAA0E426F408140B166
:10232400FED705B002D0D69E01D0D68EF80E00019D
:102334004117F80C156B166B010E176F0B0E136F0C
:10234400DC0E126F125160004CFC04F5056A04C5E2
:1023540005F5046A04100501BF6F0550C06F280E0F
:10236400026E270E036E68EC13F0B698B69A03015A
:10237400146B12000301D96BDA6BDB6BDC6BDF6B64
:10238400E06BE56BE76BEC6BEE6BEF6BF06BF16B9B
:10239400F26BF46B100EF56FF66BF76BF86BF96B71
:1023A400FA6B840EF36FB494B590840C5D500BE11A
:1023B400BE84BE8AC09ABE9200017881030000F0F8
:1023C40000F0010E5D6E5D0402E051EF0FF0BE946B
:1023D400BE9AC08ABE820001789151EF0FF0126A52
:1023E400136A0BD011C504F5056A0FC506F510C5AF
:1023F40007F5CEEC10F0124A132A12500D24D96EB0
:1024040013500E20DA6EDF50116E1150EBE1120002
:102414005D500EE1CCEC0EF08B6FB69ED68EAB8E7B
:10242400D20E026E200E036E6DEC13F0010E5D6E83
:1024340005019351D8B41200AB9ED69E5D6A12007A
:1024440015BE04D015500FE114040DE214C516F5A1
:1024540015C517F5161E171E164A172A16C514F5A4
:1024640017C515F5120014C514F515C515F5120098
:10247400050192510EE1D0B81200110E026E3A0E0F
:10248400E82EFED7022EFCD700D0010E0501926F74
:10249400010CD0A81200926B010E936F010C05EC95
:1024A40013F0EFEC0FF07DEC12F0BCEC11F042EC09
:1024B40013F0A5EC12F0C8EC12F0FDEC10F09CEC5B
:1024C40011F092EC13F09EEF10F002C504F503C571
:1024D40005F502D0024A032A610008F4D9F4610028
:1024E4000CF4DAF4DF50F6E10450025C026E05509D
:1024F4000358036E1200D69AB490D680000E026A76
:10250400036A91EC13F0B990D682000E026A036A52
:1025140090EC13F0BD90D684026A036A000C066E38
:10252400610018F4ECF30301F38FF39DF381F3B12D
:10253400FED7EB51056E046AEA510424026E000EC4
:102544000520036E1200F30E0301196F186B480E79
:102554001B6F260E026E270E036E6DEC13F0B69EF3
:10256400AB8E800E03011A6F800C01EE60F1550EE4
:10257400EE6AE806FDE15D6A0401080E5D6F000E77
:102584005E6F000E5F6F000167EF0FF0010E206FAA
:102594001F6B216B1D691C6B2A0E026E270E036EC6
:1025A40063EC13F0B696800E1E6F800C030114A525
:1025B40005D0149103D81481120000D061000CF4EA
:1025C40013F3610008F412F312005A0E0501C56FEB
:1025D400050EC66F536A546A59C555F5C50E566E35
:1025E400050E576E51EF11F0B69E0501BB51BC119B
:1025F400D8B412000500FA6EBB51FD6EBC51FE6EDC
:10260400FF6AFA501200620E0001AD6F700EAE6FD9
:10261400AF6B200EB36F010EB16FB26BB06BAC6BCE
:102624001200380E0001456F61000CF444F06100A3
:1026340008F443F0F80E41174081465112005D50F2
:1026440002E15DEC0FF05D0402E051EF0FF0BE8A91
:1026540051EF0FF0936B942B0A0E94650A0C010E44
:10266400946F010C610008F46BF461000CF46CF4D9
:102674001200026EB7A2FED7610008F4A3F21200A2
:102684000001786B796B300EF06E300CBFC502F52B
:10269400C0C503F5D8EF12F0ABBEB6AE1100F6EC30
:1026A40012F0110002C5B7F503C5B8F5120002C552
:1026B400B9F503C5BAF5120002C5B5F503C5B6F5FB
:1026C400120002C5C1F503C5C2F5120002C5BDF56D
:1026D40003C5BEF5120002C5BBF503C5BCF5120067
:1026E400036E03503BEF13F003011E9F120003011E
:1026F4001E8F1200030114911200030114811200B1
:1027040069841200698E1200699E12001200120080
:102714001200120012001200120012001200120025
:08272400120012001200120065
:020000040020DA
:10000000FF0FFF0FFF0FFF0FFF0FFF0FFF0FFF0F80
:10001000FF0FFF0FFF0FFF0FFF0FFF0FFF0FFF0F70
:020000040030CA
:0A0000008C1DF7F7ACCFFFFFFFFFE8
:00000001FF
