:040000000DEF00F010
:040008006FEF14F092
:06001800FF00BDEF15F032
:1016000000C42500000000AE2D0000F82B000000F3
:1016100000000000000000000000000000000000CA
:10162000000000000000000000E42CC82CAC2C00DE
:10163000004A2C000000000000902D00007E29D4FC
:101640002DCE2DCE2B402D0000A42BC82DC22D0059
:1016500000362D000041444320526573756C743A86
:071660002025640A0D0000C3
:1016680023C539F524C53AF525C53BF526C53CF50E
:1016780027C53DF528C53EF529C53FF52AC540F5DE
:1016880040BE49EF0BF04CEF0BF0010E4DEF0BF0A5
:10169800000E436E4350D8B454EF0BF056EF0BF0E6
:1016A80066EF0BF0401E3F1E3E1E3D1E3C1E3B1EBD
:1016B8003A1E396C000E3A223B223C223D223E2241
:1016C8003F224022050163BF74EF0BF0635106E12E
:1016D8006205D8B072EF0BF074EF0BF07AEF0BF0F5
:1016E800000E366E010E356E7EEF0BF062C535F5D5
:1016F80063C536F560C537F561C538F54350D8B4CC
:1017080088EF0BF08AEF0BF0A1EF0BF03706D8A0AB
:1017180038064350D8A493EF0BF095EF0BF09BEFEE
:101728000BF0000E346E2B0E336E9FEF0BF0000E95
:10173800346E2D0E336E33C543F5000E426E1F0E08
:10174800416E000EA06F25EF0CF04106D8A04206AE
:10175800810E4124D96E050E4220DA6E39C504F592
:101768003AC505F53BC506F53CC507F53DC508F581
:101778003EC509F53FC50AF540C50BF50A0E0C6EC6
:10178800000E0D6E000E0E6E000E0F6E000E106E27
:10179800000E116E000E126E000E136E36EC0DF078
:1017A80004C52BF505C52CF506C52DF507C52EF581
:1017B80008C52FF509C530F50AC531F50BC532F551
:1017C8002BC516F52CC517F525EC15F01650300F5E
:1017D800DF6E3506D8A036063706D8A0380639C5D4
:1017E80004F53AC505F53BC506F53CC507F53DC505
:1017F80008F53EC509F53FC50AF540C50BF50A0EC3
:101808000C6E000E0D6E000E0E6E000E0F6E000EAA
:10181800106E000E116E000E126E000E136E72EC3A
:101828000CF004C539F505C53AF506C53BF507C5FD
:101838003CF508C53DF509C53EF50AC53FF50BC59C
:1018480040F542BE30EF0CF0425008E14104D8A008
:1018580030EF0CF032EF0CF04EEF0CF039503A103C
:101868003B103C103D103E103F104010D8A43FEFF5
:101878000CF041EF0CF0A9EF0BF036BE4EEF0CF078
:10188800365006E13504D8B04CEF0CF04EEF0CF0B2
:10189800A9EF0BF04350D8B454EF0CF056EF0CF00E
:1018A80061EF0CF04106D8A04206810E4124D96EA2
:1018B800050E4220DA6E43C5DFF421C516F522C5B0
:1018C80017F5810E4124186E050E4220196E37C592
:1018D8001AF538C51BF521EC13F01200000E156E31
:1018E80013BE7BEF0CF079EF0CF08DEF0CF0131EAC
:1018F800121E111E101E0F1E0E1E0D1E0C6C000E49
:101908000D220E220F221022112212221322010E62
:10191800156E0BBE94EF0CF092EF0CF0A6EF0CF0E6
:101928000B1E0A1E091E081E071E061E051E046C35
:10193800000E052206220722082209220A220B226B
:10194800010E151A21EE16F1070EDE6AE806FDE211
:101958000C500D100E100F10101011101210131043
:10196800D8B4B9EF0CF0BBEF0CF00DEF0DF0010E91
:10197800146EC9EF0CF0D8900C360D360E360F36B3
:101988001036113612361336142A13AECEEF0CF079
:10199800D0EF0CF0BFEF0CF0D8901636173618368B
:1019A80019361A361B361C361D360C50045C0D5081
:1019B80005580E5006580F50075810500858115027
:1019C800095812500A5813500B58D8A0EEEF0CF0D3
:1019D800F0EF0CF001EF0DF00C50045E0D50055ABD
:1019E8000E50065A0F50075A1050085A1150095AEB
:1019F80012500A5A13500B5A1680D89013321232CA
:101A0800113210320F320E320D320C32142ED0EF4A
:101A18000CF01550D8B413EF0DF015EF0DF025EFBD
:101A28000DF01D1E1C1E1B1E1A1E191E181E171E29
:101A3800166C000E1722182219221A221B221C22A9
:101A48001D2216C504F517C505F518C506F519C5EF
:101A580007F51AC508F51BC509F51CC50AF51DC506
:101A68000BF51200000E156E0BBE3FEF0DF03DEFAB
:101A78000DF051EF0DF00B1E0A1E091E081E071E61
:101A8800061E051E046C000E0522062207220822E7
:101A980009220A220B22010E156E13BE58EF0DF013
:101AA80056EF0DF068EF0DF0131E121E111E101EDA
:101AB8000F1E0E1E0D1E0C6C000E0D220E220F2284
:101AC80010221122122213220C500D100E100F108A
:101AD8001010111012101310D8B475EF0DF077EF25
:101AE8000DF0BFEF0DF0010E146E85EF0DF0D890DC
:101AF8000C360D360E360F361036113612361336B2
:101B0800142A13AE8AEF0DF08CEF0DF07BEF0DF079
:101B18000C50045C0D5005580E5006580F500758CD
:101B2800105008581150095812500A5813500B58A1
:101B3800D8A0A1EF0DF0A3EF0DF0B3EF0DF00C500E
:101B4800045E0D50055A0E50065A0F50075A105091
:101B5800085A1150095A12500A5A13500B5AD89061
:101B680013321232113210320F320E320D320C3261
:101B7800142E8CEF0DF01550D8B4C5EF0DF0C7EF4B
:101B88000DF0D7EF0DF00B1E0A1E091E081E071ECA
:101B9800061E051E046C000E0522062207220822D6
:101BA80009220A220B2204C504F505C505F506C558
:101BB80006F507C507F508C508F509C509F50AC5F5
:101BC8000AF50BC50BF5120046C5D9F447C5DAF47A
:101BD800DEC4F6F4DDC4F7F4F86A0800F550250A07
:101BE800D8A4F9EF0DF0FBEF0DF07DEF0EF046C530
:101BF800D9F447C5DAF4DE2A000EDD22000E05010D
:101C0800616F000E606F60C576F56269636946C5ED
:101C1800D9F447C5DAF4DEC454F5DDC455F554C526
:101C2800F6F455C5F7F4F86A0800F550640AD8B414
:101C380020EF0EF022EF0EF031EF0EF054C5F6F45F
:101C480055C5F7F4F86A0800F550690AD8A42FEFCB
:101C58000EF031EF0EF074EF0EF048C5D9F449C517
:101C6800DAF4DFC44AF5020EDE26DFC44BF5000EB7
:101C7800DD224AC5D9F44BC5DAF4DEC44CF5DDC41F
:101C88004DF5000E4DBEFF0E4E6E4F6E506E516EEE
:101C9800526E536E010E54244A6E000E55204B6E40
:101CA80046C5D9F447C5DAF44AC5DEF44BC5DDF4B8
:101CB80044C521F545C522F54CC523F54DC524F588
:101CC8004EC525F54FC526F550C527F551C528F54C
:101CD80052C529F553C52AF534EC0BF092EF0EF0F6
:101CE80046C5D9F447C5DAF4DE2A000EDD2292EFA4
:101CF8000EF046C5D9F447C5DAF4DEC4F6F4DDC4FF
:101D0800F7F4F86A0800F550066E076A44C508F546
:101D180045C509F5C2EC11F074EF0EF012005E50E3
:101D2800D8A499EF0EF09BEF0EF0A3EF0EF0000E83
:101D3800BE6EC09A010E05017A6F010E5E6E5E04DA
:101D4800D8A4A9EF0EF0ABEF0EF01DEF0FF0100EB8
:101D58005FEC15F005C504F5056A045005017B6FB5
:101D6800550EA76F160EA86FEAC3ABF5EBC3ACF51B
:101D7800040EAD6FD890AC33AB33AD2FBEEF0EF081
:101D8800ABC5A9F5ACC5AAF511EC16F0530EE82EB3
:101D9800FED700F005017B077B29D8A4D6EF0EF00B
:101DA800D8EF0EF0CAEF0EF07AC5ABF5010EAB17FF
:101DB800AB3BAB47BE50AB19DF0BAB19BE6E7AC558
:101DC800ABF5D890AB33010EAB17AB47BE50AB1990
:101DD800FD0BAB19BE6E7AC5ABF5D890AB33D89076
:101DE800AB33010EAB17AB47AB47BE50AB19FB0B80
:101DF800AB19BE6E7AC5ABF5D890AB33D890AB3380
:101E0800D890AB33010EAB17AB3BAB47C050AB1907
:101E1800DF0BAB19C06E7A517A257A6F100E7A19DA
:101E2800D8A419EF0FF01BEF0FF01DEF0FF0010E04
:101E38007A6F5F50D8B423EF0FF025EF0FF027EF3C
:101E48000FF0000E5E6E12005E50D8A42EEF0FF059
:101E580030EF0FF035EF0FF0000EBE6EC09A010E96
:101E68005E6E5E04D8A43BEF0FF03DEF0FF0A4EFD9
:101E78000FF0AA0E056E550E046ECDEC16F0100E7E
:101E88005FEC15F005C504F5056A04500501786F87
:101E9800000E046E000E056E380E066E78C507F546
:101EA800F1EC13F0550E0501A76F160EA86FEAC3E3
:101EB800A9F5EBC3AAF511EC16F0000E046E000E9E
:101EC800056E380E066EA6EC15F00501776FD2EC9C
:101ED80016F077C55AF5010E5A165A3A5A46BE50A8
:101EE8005A18DF0B5A18BE6E77C55AF5D8905A3271
:101EF800010E5A165A46BE505A18FD0B5A18BE6E95
:101F080077C55AF5D8905A32D8905A32010E5A16D7
:101F18005A465A46BE505A18FB0B5A18BE6E77C519
:101F28005AF5D8905A32D8905A32D8905A32010E6F
:101F38005A165A3A5A46C0505A18DF0B5A18C06EE9
:101F48005F50D8B4AAEF0FF0ACEF0FF0AEEF0FF080
:101F5800000E5E6E12008FEC15F0000E0201166F77
:101F6800AB9E1DEC14F0E1EF0FF004EC15F017EF49
:101F780010F075EC11F017EF10F09BEC10F017EF64
:101F880010F00BEC11F017EF10F093EC0EF017EFC8
:101F980010F055EC12F017EF10F025EC10F017EFD9
:101FA80010F098EC14F017EF10F0C5EC13F017EFE1
:101FB80010F028EC0FF017EF10F005018051AE6F0C
:101FC800AF6BAF51000AD8B4ECEF0FF017EF10F079
:101FD800AE51010AD8B4B9EF0FF0030AD8B4BDEF77
:101FE8000FF0010AD8B4C1EF0FF0070AD8B4C5EF53
:101FF8000FF0010AD8B4C9EF0FF0030AD8B4CDEF37
:102008000FF0010AD8B4D1EF0FF00F0AD8B4D5EF0A
:102018000FF0010AD8B4D9EF0FF0030AD8B4DDEFF6
:102028000FF017EF10F05F50D8B41DEF10F01FEF4E
:1020380010F0B5EF0FF038EC16F0B5EF0FF00DEF2C
:1020480000F05E50D8A42BEF10F02DEF10F037EF12
:1020580010F0000EBE6EC09ABE8A010E5D6EEAECEC
:1020680016F0010E5E6E5E04D8A43DEF10F03FEF4F
:1020780010F08EEF10F0B6A844EF10F046EF10F015
:102088003FEF10F0B6988EEC16F05D505D245D6E53
:10209800100E5D18D8A453EF10F055EF10F057EF5D
:1020A80010F0010E5D6E5DC506F5010E0616063AC6
:1020B8000646BE500618DF0B0618BE6E5DC506F54F
:1020C800D8900632010E06160646BE500618FD0BBD
:1020D8000618BE6E5DC506F5D8900632D890063251
:1020E800010E061606460646BE500618FB0B0618D5
:1020F800BE6E5DC506F5D8900632D8900632D890E7
:102108000632010E0616063A0646C0500618DF0BC0
:102118000618C06E5F50D8B494EF10F096EF10F028
:102128009AEF10F0E7EC16F0000E5E6E12005E50AB
:10213800D8A4A1EF10F0A3EF10F0ACEF10F0000E50
:10214800BE6EC09ABE8A010E05017D6F010E5E6EDD
:102158005E04D8A4B2EF10F0B4EF10F000EF11F065
:10216800520E046E2A0EE82EFED7042EFCD7050167
:10217800D8907D37100E7D19D8A4C5EF10F0C7EFA1
:1021880010F0C9EF10F0010E7D6F7DC504F5010E4A
:102198000416043A0446BE500418DF0B0418BE6E39
:1021A8007DC504F5D8900432010E04160446BE50CD
:1021B8000418FD0B0418BE6E7DC504F5D8900432D2
:1021C800D8900432010E041604460446BE50041882
:1021D800FB0B0418BE6E7DC504F5D8900432D89068
:1021E8000432D8900432010E0416043A0446C05052
:1021F8000418DF0B0418C06E5F50D8B406EF11F056
:1022080008EF11F00AEF11F0000E5E6E12005E503A
:10221800D8A411EF11F013EF11F018EF11F0000E20
:10222800BE6EC09A010E5E6E5E04D8A41EEF11F059
:1022380020EF11F06AEF11F0100E5FEC15F005C5F4
:1022480004F5056A045005017C6F550EA76F160E3C
:10225800A86FEAC3A9F5EBC3AAF511EC16F07CC583
:102268005AF5010E5A165A3A5A46BE505A18DF0BFA
:102278005A18BE6E7CC55AF5D8905A32010E5A16B5
:102288005A46BE505A18FD0B5A18BE6E7CC55AF5F0
:10229800D8905A32D8905A32010E5A165A465A468F
:1022A800BE505A18FB0B5A18BE6E7CC55AF5D8900A
:1022B8005A32D8905A32D8905A32010E5A165A3A8F
:1022C8005A46C0505A18DF0B5A18C06E5F50D8B41F
:1022D80070EF11F072EF11F074EF11F0000E5E6EF6
:1022E80012005E50D8A47BEF11F07DEF11F084EF5F
:1022F80011F0000EBE6EC09AEAEC16F0010E5E6E8A
:102308005E04D8A48AEF11F08CEF11F0B5EF11F04C
:10231800B6A891EF11F093EF11F08CEF11F0B69889
:102328008EEC16F005017E2B030E7E19D8A49FEFC4
:1023380011F0A1EF11F0B5EF11F0BEBAA6EF11F050
:10234800A9EF11F0010EAAEF11F0000EFF0A066EB8
:10235800063A0646BE500618DF0B0618BE6E000E7B
:102368007E6F5F50D8B4BBEF11F0BDEF11F0C1EF35
:1023780011F0E7EC16F0000E5E6E1200085009101E
:10238800D8B4C9EF11F0CBEF11F0D4EF11F0085029
:102398000910D8A4D2EF11F0D4EF11F0D9EF11F051
:1023A800065047EC16F00CEF12F020EE09F008503A
:1023B800D9260950DA22DE50DE10D8B4E6EF11F043
:1023C800E8EF11F003EF12F020EE09F00850D926DB
:1023D8000950DA2210EE03F00850E1260950E222F3
:1023E800DE50E65CE650800A0E6EDE50800A0E581B
:1023F800D8B001EF12F003EF12F00CEF12F020EE5C
:1024080003F00850D9260950DA22DE2A000EDD2210
:102418001200000EBE6E000EBF6E000EC06E190ECA
:10242800C66EF00EC76E9F0EC86E110E0401006FC7
:10243800D00E086F8F0E106F000E016F000E096F1F
:10244800000E116F000E0201876F000E866F000EDE
:102458000401026F000E0A6F000E126F370E036F31
:10246800F00E0B6F13693F0E046FF00E0C6F1469BA
:102478000D0E0201726F100E176F000E0401056F2A
:10248800000E066F000E076F000E0D6F000E0E6F28
:10249800000E0F6F000E156F000E166F000E176FEF
:1024A80012005E50D8A45BEF12F05DEF12F069EFF6
:1024B80012F0000EBE6EC09AEFEC16F00A0E020182
:1024C800166FE4EC16F0010E5E6E5E04D8A46FEF92
:1024D80012F071EF12F08BEF12F0100E5FEC15F0A6
:1024E80004C574F505C575F5550E0501A76F160EDB
:1024F800A86F74C5A9F575C5AAF511EC16F074C5D1
:1025080004F575C505F5C3EC16F0EDEC16F05F5053
:10251800D8B491EF12F093EF12F09CEF12F0E1ECC7
:1025280016F0F1EC16F0000E0201166F000E5E6E4A
:10253800120005017905D8A4A4EF12F0A6EF12F055
:10254800A8EF12F0100E796FD890793379C501F59C
:10255800010E0116013A0146BE500118DF0B0118A1
:10256800BE6E79C501F5D8900132010E01160146FB
:10257800BE500118FD0B0118BE6E79C501F5D89043
:102588000132D8900132010E011601460146BE50B3
:102598000118FB0B0118BE6E79C501F5D890013200
:1025A800D8900132D8900132010E0116013A014645
:1025B800C0500118DF0B0118C06E1200000E020196
:1025C800A16F000EA26F000EA36F000EA46F000E85
:1025D800A56F000EA66F000EA76F000EA86F000E65
:1025E800A96F000EAA6FB00EAB6F800EAC6F080E0D
:1025F800AD6F0C0EAE6F000EAF6F200EB06F000EF9
:10260800B16F000EB26F000EB36F000E046E000EB5
:10261800056E72EC16F0000E046E000E056E64EC8A
:1026280016F0000E046E000E056E56EC16F0000E45
:1026380005016B6F000E6A6F12001BBE26EF13F0C8
:1026480028EF13F02EEF13F01AC51FF51BC520F560
:1026580032EF13F0000E206E000E1F6E000E1E6E7D
:10266800000E1D6E44EF13F0000E076E200E066E6E
:1026780016C508F517C509F5C2EC11F01D4A1E2A42
:102688001F501D5C1E50800A1C6E2050800A1C586A
:10269800D8A051EF13F053EF13F038EF13F018C52B
:1026A8000FF519C510F516C511F517C512F5E2ECA9
:1026B80014F01200000E606E020E616E000E626E63
:1026C800870E636E130E646E000E656E000E666EE6
:1026D800000E676E000E686E000E6A6EA00E6B6EBE
:1026E8000F0E6C6EC40E6D6E090E6E6EB79CB79EA3
:1026F80067906792AC9EAC9C000E046E000E056E4F
:10270800AAEC16F0000E046E000E056EA5EC16F08D
:10271800000E046E000E056EAFEC16F0800E696EAA
:102728001200000E0301D96F000EDA6F000EDB6F86
:10273800000EDC6F000EDF6F000EE06F000EE56F1D
:10274800000EE76F000EEC6F000EEE6F000EEF6FDD
:10275800000EF06F000EF16F000EF26F000EF46FB6
:10276800100EF56F000EF66F000EF76F000EF86F83
:10277800000EF96F000EFA6F840EF36FB494B590E3
:1027880012005E50D8A4CBEF13F0CDEF13F0D8EFC2
:1027980013F0BE84BE8AC09ABE92000178810300FD
:1027A80000F000F0010E5E6E5E04D8A4DEEF13F0B8
:1027B800E0EF13F0E6EF13F0BE94BE9AC08ABE8233
:1027C800000178915F50D8B4ECEF13F0EEEF13F0FE
:1027D800F0EF13F0000E5E6E1200000ED6BE010E72
:1027E8000B6E06C545F004C508F505C509F506C50F
:1027F8000AF509C508F50AC509F50A6A085000016D
:10280800446F04C543F007C546F04151F80B03096E
:10281800416FD69E00015CC542F05B50426F40811B
:102828000BB002D0D69E01D0D68EF80E000141170B
:10283800120005017F51D8A424EF14F026EF14F0FC
:102848003AEF14F0D0B82BEF14F02DEF14F045EF59
:1028580014F0110E046E3A0EE82EFED7042EFCD7A3
:1028680000D0010E05017F6F45EF14F0D0A83FEFAF
:1028780014F041EF14F045EF14F0000E7F6F010ED5
:102888005F6E1200A3C556F5A4C557F55AEF14F0AC
:10289800A1C544F5A2C545F5560E466E050E476E10
:1028A800A5C548F5A6C549F5E8EC0DF056C5F6F4FA
:1028B80057C5F7F4F86A0800F5500009D8A467EF7F
:1028C80014F069EF14F04CEF14F0000E0501A26F3C
:1028D800000EA16F1200FAC402F5FBC403F5A8AEFE
:1028E80078EF14F07AEF14F083EF14F0B3AE7FEFC3
:1028F80014F081EF14F083EF14F0F6EC16F0ABAEA1
:1029080088EF14F08AEF14F093EF14F0B6AE8FEF5F
:1029180014F091EF14F093EF14F077EC15F003C571
:10292800FBF402C5FAF411005E50D8A49EEF14F02F
:10293800A0EF14F0B2EF14F0000EBE6EC09ABE8A7B
:10294800010E0501796FB69ED68EAB8E3A0E046ED7
:10295800250E056EC8EC16F0010E5E6E5F50D8B4F9
:10296800B8EF14F0BAEF14F0BEEF14F0AB9ED69E99
:10297800000E5E6E1200000E0301156F000E166F3A
:10298800010E176F0B0E136FDB0E126F125113C36C
:1029980006F5076A06C507F5066A06100501B46F4D
:1029A8000750B56FE80E046E2D0E056EA0EC16F0FC
:1029B800B698B69A000E0301146F1200000E156E39
:1029C800000E146EF3EF14F013C506F5076A11C56F
:1029D80008F512C509F5C2EC11F0144A152A14506D
:1029E8000F24D96E15501020DA6EDF50136E135075
:1029F800D8A401EF15F003EF15F0E8EF14F012007A
:102A08005E50D8A40AEF15F00CEF15F011EF15F091
:102A1800000EBE6EC09A010E5E6E5E04D8A417EF5B
:102A280015F019EF15F01AEF15F0BE8A5F50D8B4FB
:102A380020EF15F022EF15F024EF15F0000E5E6E72
:102A4800120017BE32EF15F0175006E11604D8B081
:102A580030EF15F032EF15F040EF15F016C518F508
:102A680017C519F5181E191E184A192A18C516F57A
:102A780019C517F544EF15F016C516F517C517F55E
:102A88001200D69AB490D680000E046E000E056E21
:102A9800BEEC16F0B990D682000E046E000E056EDC
:102AA800B9EC16F0BD90D684000E046E000E056ECB
:102AB800B4EC16F01200086E08C5ECF30301F38FAE
:102AC800F39DF381F3B16BEF15F06DEF15F066EF41
:102AD80015F0EB51076E066AEA510624046E000EE3
:102AE8000720056E1200B69E0501B051B111D8B489
:102AF80080EF15F082EF15F08EEF15F002D88EEF0B
:102B080015F00500FA6EB051FD6EB151FE6EFF6A08
:102B1800FA501200120080EC16F00DEC12F095EC51
:102B280013F0DBEC16F05EEC13F025EC16F0BFECBE
:102B380014F0D2EC15F0E2EC12F095EC16F045EC3E
:102B480015F0120006C545F004C507F505C508F5DA
:102B580006C509F508C507F509C508F5096A075046
:102B68000001446F04C543F0F80E411740814651F7
:102B7800120001EE60F1410EEE6AE806FDE15F6ABF
:102B88005E6A5D6A5C6A5B6A0401080E5D6F000E2E
:102B98005E6F000E5F6F0001AFEF0FF0010E0301D3
:102BA800206F000E1F6F000E216F1D69000E1C6F35
:102BB800EA0E046E2D0E056E9BEC16F0B696800E8E
:102BC80003011E6F1200030114A5EDEF15F0EFEFDE
:102BD80015F0F7EF15F014910550136F04C512F3B3
:102BE8001481FBEF15F00550136F04C512F31200A2
:102BF800000E046E0201B0AB04EF16F006EF16F0FB
:102C08000FEF16F0ABAB0BEF16F00DEF16F00FEF62
:102C180016F0010E046E04501200A90E586E050E2F
:102C2800596E000E0501A16F000EA26FA7C5A3F58E
:102C3800A8C5A4F5580EA56F050EA66F46EC14F0AE
:102C48001200F30E0301196F000E186F480E1B6F68
:102C5800E60E046E2D0E056EC8EC16F0B69EAB8E11
:102C6800800E03011A6F1200000E5F6E0501802BA3
:102C78000A0E806542EF16F044EF16F046EF16F0A4
:102C8800010E806F1200056EFCEC15F00009D8B437
:102C980050EF16F052EF16F048EF16F00550D7EC4B
:102CA80016F0120004500510D8B45DEF16F05FEF6F
:102CB80016F063EF16F004C564F505C565F5120056
:102CC80004500510D8B46BEF16F06DEF16F071EFE5
:102CD80016F004C566F505C567F512000450051021
:102CE800D8B479EF16F07BEF16F07FEF16F004C535
:102CF80068F505C569F51200620E0001AD6F000E9A
:102D0800AF6F200EB36F010EB16F000EB06F000EE3
:102D1800AC6F1200B4C504F5B5C505F5E7EC15F0C0
:102D28001200180E0001786F170E796F120004C593
:102D3800B6F505C5B7F5120004C5B2F505C5B3F576
:102D4800120004C5BAF505C5BBF5120004C5BCF5EB
:102D580005C5BDF5120004C5B8F505C5B9F51200DD
:102D680004C56EF505C56FF5120004C570F505C5F7
:102D780071F5120004C572F505C573F5120004C596
:102D88006BF405506C6E120004C5B0F505C5B1F5BD
:102D9800120005505B6E04C55CF51200000E5B6EF8
:102DA800000E5C6E1200046E04C5A3F21200DEEC85
:102DB80016F012000001419F120003011E9F12002D
:102DC80003011E8F120003011491120003011481E4
:102DD800120069841200698E1200699E12001200A6
:062DE800120012001200AF
:020000040020DA
:10000000FF0FFF0FFF0FFF0FFF0FFF0FFF0FFF0F80
:10001000FF0FFF0FFF0FFF0FFF0FFF0FFF0FFF0F70
:10002000FF0FFF0FFF0FFF0FFF0FFF0FFF0FFF0F60
:10003000FF0FFF0FFF0FFF0FFF0FFF0FFF0FFF0F50
:020000040030CA
:090000008C1DF7F7ACCFFFFFFFE8
:00000001FF
