:040000000DEF00F010
:04000800D4EF16F02B
:06001800FF00C3EF16F02B
:1016000000A6240000022E00000000802E762E622C
:101610002E000000000000000000003C2D00000033
:10162000000000DA2E0000AE2A002FFA2EBC2C9407
:101630002E0000EA2CF42EEE2E00008A2E0000412F
:10164000444320526573756C743A2025640A0D007A
:011650000099
:1016520021C539F522C53AF523C53BF524C53CF52C
:1016620025C53DF526C53EF527C53FF528C540F5FC
:1016720040BE3EEF0BF041EF0BF0010E42EF0BF0DC
:10168200000E376E386A37503810D8B44BEF0BF073
:101692004DEF0BF05DEF0BF0401E3F1E3E1E3D1E58
:1016A2003C1E3B1E3A1E396C000E3A223B223C2263
:1016B2003D223E223F22402205017DBF63EF0BF017
:1016C20065EF0BF066EF0BF07E937DBF73EF0BF0CF
:1016D2007D5106E17C05D8B071EF0BF073EF0BF092
:1016E20079EF0BF0000E346E010E336E7DEF0BF0CE
:1016F2007CC533F57DC534F57AC535F57BC536F540
:1017020037503810D8A488EF0BF08AEF0BF091EF26
:101712000BF07EA58FEF0BF091EF0BF094EF0BF037
:101722003506D8A03606000E426E1F0E416E000E20
:10173200B66F18EF0CF04106D8A04206970E41246E
:10174200D96E050E4220DA6E39C502F53AC503F5A7
:101752003BC504F53CC505F53DC506F53EC507F597
:101762003FC508F540C509F50A0E0A6E000E0B6E5C
:10177200000E0C6E000E0D6E000E0E6E000E0F6E41
:10178200000E106E000E116E5AEC0EF002C529F515
:1017920003C52AF504C52BF505C52CF506C52DF59F
:1017A20007C52EF508C52FF509C530F529C514F56D
:1017B2002BC515F5BFEC15F01450300FDF6E330654
:1017C200D8A034063506D8A0360639C502F53AC582
:1017D20003F53BC504F53CC505F53DC506F53EC51B
:1017E20007F53FC508F540C509F50A0E0A6E000E59
:1017F2000B6E000E0C6E000E0D6E000E0E6E000EC5
:101802000F6E000E106E000E116E96EC0DF002C5FA
:1018120039F503C53AF504C53BF505C53CF506C5E2
:101822003DF507C53EF508C53FF509C540F542BE81
:1018320023EF0CF0425008E14104D8A023EF0CF052
:1018420025EF0CF056EF0CF039503A103B103C10DB
:101852003D103E103F104010D8A432EF0CF034EF90
:101862000CF09CEF0BF034BE41EF0CF0345006E16B
:101872003304D8B03FEF0CF041EF0CF09CEF0BF0CB
:1018820036BE4CEF0CF0365008E13504D8A04CEFD0
:101892000CF04EEF0CF056EF0CF005017EB354EF56
:1018A2000CF056EF0CF09CEF0BF037503810D8A428
:1018B2005DEF0CF05FEF0CF067EF0CF005017EA519
:1018C20065EF0CF067EF0CF086EF0CF04106D8A044
:1018D200420637503810D8A471EF0CF073EF0CF0B9
:1018E20079EF0CF0000E326E2B0E316E7DEF0CF0A4
:1018F200000E326E2D0E316E970E4124D96E050EFA
:101902004220DA6E6100C4F4DFF41FC514F520C56D
:1019120015F5970E4124166E050E4220176E35C539
:1019220018F536C519F5F0EC11F014C51FF515C5FB
:1019320020F51200610014F5D9F4610018F5DAF40B
:10194200DEC4F6F4DDC4F7F4F86A0800F550250A9F
:10195200D8A4AEEF0CF0B0EF0CF075EF0DF0610013
:1019620014F5D9F4610018F5DAF4DE2A000EDD224E
:10197200000E05017B6F000E7A6F7AC57EF57BC57E
:101982007FF57C697D69610014F5D9F4610018F571
:10199200DAF4DEC4F6F4DDC4F7F4F86A0800F550B0
:1019A200640AD8B4D7EF0CF0D9EF0CF0EEEF0CF0DC
:1019B200610014F5D9F4610018F5DAF4DEC4F6F426
:1019C200DDC4F7F4F86A0800F550690AD8A4ECEF10
:1019D2000CF0EEEF0CF038EF0DF0610014F5D9F4D5
:1019E200610018F5DAF4DE2A000EDD2261001CF532
:1019F200D9F4610020F5DAF461007CF349F5020EB6
:101A0200DE2661007CF34AF5000EDD22610024F53A
:101A1200D9F4610028F5DAF4610078F34BF561003E
:101A220074F34CF5000E4CBEFF0E4D6E4E6E4F6EB3
:101A3200506E516E526E43C51FF544C520F54BC51D
:101A420021F54CC522F54DC523F54EC524F54FC5EC
:101A520025F550C526F551C527F552C528F529ECBF
:101A62000BF01FC543F520C544F595EF0DF061005D
:101A720014F5D9F4610018F5DAF4DEC4F6F4DDC425
:101A8200F7F4F86A0800F550250AD8A44BEF0DF0D8
:101A92004DEF0DF066EF0DF0610014F5D9F4610021
:101AA20018F5DAF4DE2A000EDD22000E056E250E90
:101AB200046E43C506F544C507F5FAEC12F0000EB4
:101AC200446E010E436E95EF0DF0610014F5D9F4EA
:101AD200610018F5DAF4DE2A000EDD22000E446EF3
:101AE200000E436E95EF0DF0610014F5D9F461001C
:101AF20018F5DAF4DEC4F6F4DDC4F7F4F86A080087
:101B0200F550046E056A43C506F544C507F5FAECBF
:101B120012F0610014F5D9F4610018F5DAF4DE2A46
:101B2200000EDD2260EF0DF01200000E136E11BEEA
:101B32009FEF0DF09DEF0DF0B1EF0DF0111E101E95
:101B42000F1E0E1E0D1E0C1E0B1E0A6C000E0B220B
:101B52000C220D220E220F2210221122010E136ED0
:101B620009BEB8EF0DF0B6EF0DF0CAEF0DF0091E89
:101B7200081E071E061E051E041E031E026C000E12
:101B82000322042205220622072208220922010E2C
:101B9200131A21EE14F1070EDE6AE806FDE20A507E
:101BA2000B100C100D100E100F1010101110D8B4D5
:101BB200DDEF0DF0DFEF0DF031EF0EF0010E126EE2
:101BC200EDEF0DF0D8900A360B360C360D360E3688
:101BD2000F3610361136122A11AEF2EF0DF0F4EF75
:101BE2000DF0E3EF0DF0D890143615361636173691
:101BF200183619361A361B360A50025C0B50035837
:101C02000C5004580D5005580E5006580F500758E6
:101C12001050085811500958D8A012EF0EF014EFC6
:101C22000EF025EF0EF00A50025E0B50035A0C50D4
:101C3200045A0D50055A0E50065A0F50075A1050AA
:101C4200085A1150095A1480D890113210320F32AA
:101C52000E320D320C320B320A32122EF4EF0DF02C
:101C62001350D8B437EF0EF039EF0EF049EF0EF003
:101C72001B1E1A1E191E181E171E161E151E146C68
:101C8200000E152216221722182219221A221B22AE
:101C920014C502F515C503F516C504F517C505F5F6
:101CA20018C506F519C507F51AC508F51BC509F5C6
:101CB2001200000E136E09BE63EF0EF061EF0EF01C
:101CC20075EF0EF0091E081E071E061E051E041ED5
:101CD200031E026C000E03220422052206220722A2
:101CE20008220922010E136E11BE7CEF0EF07AEF6C
:101CF2000EF08CEF0EF0111E101E0F1E0E1E0D1E8A
:101D02000C1E0B1E0A6C000E0B220C220D220E2240
:101D12000F22102211220A500B100C100D100E105F
:101D22000F1010101110D8B499EF0EF09BEF0EF0B7
:101D3200E3EF0EF0010E126EA9EF0EF0D8900A3604
:101D42000B360C360D360E360F3610361136122A79
:101D520011AEAEEF0EF0B0EF0EF09FEF0EF00A50A4
:101D6200025C0B5003580C5004580D5005580E508D
:101D720006580F5007581050085811500958D8A04B
:101D8200C5EF0EF0C7EF0EF0D7EF0EF00A50025E6D
:101D92000B50035A0C50045A0D50055A0E50065A55
:101DA2000F50075A1050085A1150095AD890113240
:101DB20010320F320E320D320C320B320A32122E28
:101DC200B0EF0EF01350D8B4E9EF0EF0EBEF0EF0D7
:101DD200FBEF0EF0091E081E071E061E051E041E3E
:101DE200031E026C000E0322042205220622072291
:101DF2000822092202C502F503C503F504C504F54C
:101E020005C505F506C506F507C507F508C508F5B4
:101E120009C509F512005E50D8A412EF0FF014EFB5
:101E22000FF01CEF0FF0000EBE6EC09A010E0501FE
:101E32008F6F010E5E6E5E04D8A422EF0FF024EFC6
:101E42000FF098EF0FF0100E16EC16F003C502F526
:101E5200036A02500501906F3F0ED96F160EDA6FBA
:101E62006000A8FF5BF56000ACFF5CF5040E5D6EE0
:101E7200D8905C325B325D2E39EF0FF05BC5DBF53B
:101E82005CC5DCF58AEC16F0530EE82EFED700F0A6
:101E9200050190079029D8A451EF0FF053EF0FF0EE
:101EA20045EF0FF08FC55BF5010E5B165B3A5B46A3
:101EB200BE505B18DF0B5B18BE6E8FC55BF5D8900A
:101EC2005B32010E5B165B46BE505B18FD0B5B1866
:101ED200BE6E8FC55BF5D8905B32D8905B32010E37
:101EE2005B165B465B46BE505B18FB0B5B18BE6E17
:101EF2008FC55BF5D8905B32D8905B32D8905B325D
:101F0200010E5B165B3A5B46C0505B18DF0B5B1839
:101F1200C06E8F518F258F6F100E8F19D8A494EF3A
:101F22000FF096EF0FF098EF0FF0010E8F6F050193
:101F32009551D8B49FEF0FF0A1EF0FF0A3EF0FF080
:101F4200000E5E6E12005E50D8A4AAEF0FF0ACEF46
:101F52000FF0B1EF0FF0000EBE6EC09A010E5E6E72
:101F62005E04D8A4B7EF0FF0B9EF0FF016EF10F040
:101F7200100E16EC16F003C502F5036A02500501B5
:101F82008C6F000E036E000E026E8CC504F506EC1B
:101F920015F03F0E0501D96F160EDA6F6000A8FF2B
:101FA200DBF56000ACFFDCF58AEC16F0000E036E88
:101FB200000E026EF4EC16F005018B6F8BC55BF51B
:101FC200010E5B165B3A5B46BE505B18DF0B5B187B
:101FD200BE6E8BC55BF5D8905B32010E5B165B461D
:101FE200BE505B18FD0B5B18BE6E8BC55BF5D890BF
:101FF2005B32D8905B32010E5B165B465B46BE508D
:102002005B18FB0B5B18BE6E8BC55BF5D8905B3221
:10201200D8905B32D8905B32010E5B165B3A5B461E
:10202200C0505B18DF0B5B18C06E05019551D8B428
:102032001DEF10F01FEF10F021EF10F0000E5E6E9A
:1020420012005E50D8A428EF10F02AEF10F035EFFE
:1020520010F0000EBE6EC09ABE8A010E05018E6F90
:1020620080EC17F0010E5E6E5E04D8A43BEF10F018
:102072003DEF10F08DEF10F0B6A842EF10F044EFF4
:1020820010F03DEF10F0B69815EC17F005018E51E7
:102092008E258E6F100E8E19D8A452EF10F054EFC9
:1020A20010F056EF10F0010E8E6F8EC504F5010E82
:1020B2000416043A0446BE500418DF0B0418BE6E20
:1020C2008EC504F5D8900432010E04160446BE50A3
:1020D2000418FD0B0418BE6E8EC504F5D8900432A8
:1020E200D8900432010E041604460446BE50041869
:1020F200FB0B0418BE6E8EC504F5D8900432D8903E
:102102000432D8900432010E0416043A0446C05038
:102112000418DF0B0418C06E05019551D8B494EF72
:1021220010F096EF10F09AEF10F07DEC17F0000E21
:102132005E6E120047EC16F0000E0201166FAB9EA7
:10214200DDEC14F0CDEF10F07BEC15F003EF11F0A5
:10215200ACEC12F003EF11F012EC11F003EF11F0FE
:1021620083EC11F003EF11F00CEC0FF003EF11F020
:1021720045EC13F003EF11F022EC10F003EF11F035
:102182002FEC15F003EF11F0B0EC14F003EF11F0A7
:10219200A4EC0FF003EF11F005019651E16FE26B31
:1021A200E251000AD8B4D8EF10F003EF11F0E15178
:1021B200010AD8B4A5EF10F0030AD8B4A9EF10F0C1
:1021C200010AD8B4ADEF10F0070AD8B4B1EF10F09D
:1021D200010AD8B4B5EF10F0030AD8B4B9EF10F081
:1021E200010AD8B4BDEF10F00F0AD8B4C1EF10F055
:1021F200010AD8B4C5EF10F0030AD8B4C9EF10F041
:1022020003EF11F005019551D8B40AEF11F00CEF6C
:1022120011F0A1EF10F0E5EC16F0A1EF10F00DEFC8
:1022220000F05E50D8A418EF11F01AEF11F023EF6E
:1022320011F0000EBE6EC09ABE8A010E0501926FA9
:10224200010E5E6E5E04D8A429EF11F02BEF11F09F
:1022520077EF11F0520E026E2A0EE82EFED7022EF2
:10226200FCD70501D8909237100E9219D8A43CEFF2
:1022720011F03EEF11F040EF11F0010E926F92C596
:1022820002F5010E0216023A0246BE500218DF0B98
:102292000218BE6E92C502F5D8900232010E0216E5
:1022A2000246BE500218FD0B0218BE6E92C502F520
:1022B200D8900232D8900232010E0216024602462D
:1022C200BE500218FB0B0218BE6E92C502F5D890E2
:1022D2000232D8900232D8900232010E0216023A2D
:1022E2000246C0500218DF0B0218C06E050195515C
:1022F200D8B47EEF11F080EF11F082EF11F0000EF2
:102302005E6E12005E50D8A489EF11F08BEF11F0CF
:1023120090EF11F0000EBE6EC09A010E5E6E5E046A
:10232200D8A496EF11F098EF11F0E4EF11F0100E2F
:1023320016EC16F003C502F5036A02500501916F0F
:102342003F0ED96F160EDA6F6000A8FFDBF5600052
:10235200ACFFDCF58AEC16F091C55BF5010E5B165D
:102362005B3A5B46BE505B18DF0B5B18BE6E91C5D5
:102372005BF5D8905B32010E5B165B46BE505B1874
:10238200FD0B5B18BE6E91C55BF5D8905B32D890A1
:102392005B32010E5B165B465B46BE505B18FB0B65
:1023A2005B18BE6E91C55BF5D8905B32D8905B32FC
:1023B200D8905B32010E5B165B3A5B46C0505B18ED
:1023C200DF0B5B18C06E05019551D8B4EBEF11F02D
:1023D200EDEF11F0EFEF11F0000E5E6E120005014D
:1023E2007EA1F6EF11F0F8EF11F002EF12F016C530
:1023F2000DF517C50EF514C50FF515C510F59DECB5
:1024020015F019BE07EF12F009EF12F00FEF12F0FC
:1024120018C51DF519C51EF513EF12F0000E1E6E3C
:10242200000E1D6E000E1C6E000E1B6E25EF12F0CC
:10243200000E056E200E046E14C506F515C507F5CF
:10244200FAEC12F01B4A1C2A1D501B5C1C50800A1D
:102452001A6E1E50800A1A58D8A032EF12F034EFCA
:1024620012F019EF12F005017EB13AEF12F03CEFD3
:1024720012F046EF12F016C50DF517C50EF514C58C
:102482000FF515C510F59DEC15F016C502F517C52B
:1024920003F5DFEC15F01D500224146E1E500320CC
:1024A200156E1200AC90000E026E000E036E2CEC44
:1024B20017F0AC92000E026E000E036E27EC17F0BE
:1024C200AC94000E026E000E036E36EC17F0AC9662
:1024D200000E026E000E036E22EC17F0000E0201D7
:1024E200A16F000EA26F000EA36F000EA46F000E6C
:1024F200A56F000EA66F000EA76F000EA86F000E4C
:10250200A96F000EAA6FA00EAB6F800EAC6F000E0B
:10251200AD6F0C0EAE6F000EAF6F000EB06F000EFF
:10252200B16F000EB26F000EB36F000E026E000E9E
:10253200036E3BEC17F0000E026E000E036E31ECE0
:1025420017F0000E026E000E036E40EC17F0000E44
:102552000501846F12005E50D8A4B2EF12F0B4EFFE
:1025620012F0BBEF12F0000EBE6EC09A80EC17F0B4
:10257200010E5E6E5E04D8A4C1EF12F0C3EF12F03A
:10258200ECEF12F0B6A8C8EF12F0CAEF12F0C3EFE8
:1025920012F0B69815EC17F00501932B030E931960
:1025A200D8A4D6EF12F0D8EF12F0ECEF12F0BEBAC8
:1025B200DDEF12F0E0EF12F0010EE1EF12F0000E8B
:1025C200FF0A046E043A0446BE500418DF0B0418D6
:1025D200BE6E000E936F05019551D8B4F3EF12F061
:1025E200F5EF12F0F9EF12F07DEC17F0000E5E6ECF
:1025F200120006500710D8B401EF13F003EF13F0E6
:102602000CEF13F006500710D8A40AEF13F00CEFEA
:1026120013F011EF13F0045072EC17F044EF13F0C3
:1026220020EE04F00650D9260750DA22DE50DE10E2
:10263200D8B41EEF13F020EF13F03BEF13F020EEAF
:1026420004F00650D9260750DA2210EE02F00650A6
:10265200E1260750E222DE50E65CE650800A0C6E6C
:10266200DE50800A0C58D8B039EF13F03BEF13F06C
:1026720044EF13F020EE02F00650D9260750DA227A
:10268200DE2A000EDD2212005E50D8A44BEF13F0BA
:102692004DEF13F059EF13F0000EBE6EC09A85ECA9
:1026A20017F00A0E0201166F7AEC17F0010E5E6E39
:1026B2005E04D8A45FEF13F061EF13F07BEF13F029
:1026C200100E16EC16F002C582F503C583F53F0E17
:1026D2000501D96F160EDA6F82C5DBF583C5DCF50D
:1026E2008AEC16F082C502F583C503F51CEC17F0DF
:1026F20083EC17F005019551D8B482EF13F084EF03
:1027020013F08DEF13F077EC17F087EC17F0000E53
:102712000201166F000E5E6E120005018D05D8A42F
:1027220095EF13F097EF13F099EF13F0100E8D6FF2
:10273200D8908D338DC501F5010E0116013A01467F
:10274200BE500118DF0B0118BE6E8DC501F5D89081
:102752000132010E01160146BE500118FD0B01188F
:10276200BE6E8DC501F5D8900132D8900132010EAE
:10277200011601460146BE500118FB0B0118BE6E40
:102782008DC501F5D8900132D8900132D89001322E
:10279200010E0116013A0146C0500118DF0B011863
:1027A200C06E1200000EBE6E000EBF6E000EC06E36
:1027B200190EC66EF00EC76E9F0EC86E110E040182
:1027C200006FD00E086F8F0E106F000E016F000E9B
:1027D200096F000E116F000E026F000E0A6F000EDD
:1027E200126F370E036FF00E0B6F13693F0E046FFB
:1027F200F00E0C6F14690D0E0201726F100E176F3E
:10280200000E0401056F000E066F000E076F000E2A
:102812000D6F000E0E6F000E0F6F000E156F000E83
:10282200166F000E176F1200000E606E020E616EC0
:10283200000E626E870E636E130E646E000E656E7E
:10284200000E666E000E676E000E686E000E6A6EF7
:10285200A00E6B6E0F0E6C6EC40E6D6E090E6E6E58
:10286200B79CB79E67906792AC9EAC9C000E026EBE
:10287200000E036E54EC17F0000E026E000E036E93
:102882004FEC17F0000E026E000E036E59EC17F0BB
:10289200800E696E120055C559F556C55AF5000EDF
:1028A2000501796F000E786F6AEF14F053C543F596
:1028B20054C544F5590E456E050E466E57C547F58B
:1028C20058C548F59BEC0CF043500501782744505D
:1028D2007923610064F5F6F4610068F5F7F4F86AAB
:1028E2000800F5500009D8A479EF14F07BEF14F03A
:1028F20057EF14F078C553F579C554F51200000E60
:102902000301D96F000EDA6F000EDB6F000EDC6F71
:10291200000EDF6F000EE06F000EE56F000EE76F36
:10292200000EEC6F000EEE6F000EEF6F000EF06FF8
:10293200000EF16F000EF26F000EF46F100EF56FC5
:10294200000EF66F000EF76F000EF86F000EF96FB3
:10295200000EFA6F840EF36FB494B59012005E50BD
:10296200D8A4B6EF14F0B8EF14F0C3EF14F0BE849D
:10297200BE8AC09ABE9200017881030000F000F086
:10298200010E5E6E5E04D8A4C9EF14F0CBEF14F012
:10299200D1EF14F0BE94BE9AC08ABE820001789133
:1029A20005019551D8B4D8EF14F0DAEF14F0DCEF4A
:1029B20014F0000E5E6E120005019451D8A4E4EFEB
:1029C20014F0E6EF14F0FAEF14F0D0B8EBEF14F0D5
:1029D200EDEF14F005EF15F0110E026E3A0EE82E2F
:1029E200FED7022EFCD700D0010E0501946F05EF31
:1029F20015F0D0A8FFEF14F001EF15F005EF15F078
:102A0200000E946F010E956F1200000ED6BE010EDD
:102A1200056E380E0001456F0350446F610008F4E3
:102A220043F0610010F446F04151F80B0309416F85
:102A3200D69E550E426FAA0E426F408140B124EFDE
:102A420015F026EF15F01FEF15F005B002D0D69E57
:102A520001D0D68EF80E0001411712005E50D8A4A4
:102A620035EF15F037EF15F049EF15F0000EBE6E99
:102A7200C09ABE8A010E05018D6FB69ED68EAB8EB0
:102A82001C0E026E270E036E6DEC17F0010E5E6EC9
:102A920005019551D8B450EF15F052EF15F056EFED
:102AA20015F0AB9ED69E000E5E6E1200000E030164
:102AB200156F000E166F010E176F0B0E136FDC0EE3
:102AC200126F125160004CFC04F5056A04C505F54D
:102AD200046A04100501C16F0550C26F160E026E22
:102AE2002F0E036E4AEC17F0B698B69A000E030149
:102AF200146F12005E50D8A481EF15F083EF15F029
:102B020088EF15F0000EBE6EC09A010E5E6E5E0476
:102B1200D8A48EEF15F090EF15F091EF15F0BE8A64
:102B220005019551D8B498EF15F09AEF15F09CEF86
:102B320015F0000E5E6E1200000E136E000E126E85
:102B4200AEEF15F011C504F5056A0FC506F510C5FF
:102B520007F5FAEC12F0124A132A12500D24D96E1C
:102B620013500E20DA6EDF50116E1150D8A4BCEF54
:102B720015F0BEEF15F0A3EF15F0120015BECCEF65
:102B820015F0155006E11404D8B0CAEF15F0CCEFD9
:102B920015F0DAEF15F014C516F515C517F5161E62
:102BA200171E164A172A16C514F517C515F5DEEFB6
:102BB20015F014C514F515C515F5120002C504F576
:102BC20003C505F5E7EF15F0024A032A610008F490
:102BD200D9F461000CF4DAF4DF50D8A4F3EF15F065
:102BE200F5EF15F0E5EF15F00450025C026E0550AA
:102BF2000358036E1200D69AB490D680000E026E6D
:102C0200000E036E68EC17F0B990D682000E026EC9
:102C1200000E036E63EC17F0BD90D684000E026EB8
:102C2200000E036E5EEC17F01200066E610018F4DF
:102C3200ECF30301F38FF39DF381F3B123EF16F06D
:102C420025EF16F01EEF16F0EB51056E046AEA51FD
:102C52000424026E000E0520036E1200B69E0501CA
:102C6200BD51BE11D8B438EF16F03AEF16F046EF68
:102C720016F002D846EF16F00500FA6EBD51FD6E51
:102C8200BE51FE6EFF6AFA5012001200B1EC16F04D
:102C9200D3EC13F080EC14F089EC17F015EC14F07F
:102CA2009EEC16F057EC15F075EC16F053EC12F0A2
:102CB2000DEC17F0FCEC15F01200030114A564EF03
:102CC20016F066EF16F06FEF16F014910350136FC3
:102CD200610008F412F3148174EF16F00350136FBD
:102CE200610008F412F31200010E0301206F000EBE
:102CF2001F6F000E216F1D69000E1C6F180E026EF1
:102D02002F0E036E45EC17F0B696800E03011E6F70
:102D12001200DB0E0501DF6F050EE06F000E536E31
:102D2200000E546ED9C555F5DAC556F5DF0E576E4D
:102D3200050E586E4CEC14F01200F30E0301196FDD
:102D4200000E186F480E1B6F140E026E2F0E036ECC
:102D52006DEC17F0B69EAB8E800E03011A6F120057
:102D6200620E0001AD6F700EAE6F000EAF6F200EDF
:102D7200B36F010EB16F000EB26F000EB06F000E96
:102D8200AC6F120001EE60F1570EEE6AE806FDE14B
:102D92005E6A0401080E5D6F000E5E6F000E5F6FCB
:102DA20000019BEF10F0ABAED9EF16F0DBEF16F09F
:102DB200E4EF16F0B6AEE0EF16F0E2EF16F0E4EF55
:102DC20016F02FEC16F01100000E0501956F962BF0
:102DD2000A0E9665EFEF16F0F1EF16F0F3EF16F02C
:102DE200010E966F1200380E0001456F0350446FBA
:102DF200610008F443F0F80E411740814651120079
:102E0200026EB7A207EF17F009EF17F002EF17F003
:102E1200610008F4A3F21200000E0001786F000EA8
:102E2200796F300EF06E1200C1C502F5C2C503F50E
:102E32005EEC16F01200610008F46BF403506C6E45
:102E4200120002C5D1F503C5D2F5120002C5D5F5AF
:102E520003C5D6F5120002C5D7F503C5D8F5120091
:102E620002C5B9F503C5BAF5120002C5D3F503C50B
:102E7200D4F5120002C5BBF503C5BCF5120002C5AC
:102E8200B7F503C5B8F5120002C5C3F503C5C4F50D
:102E9200120002C5BFF503C5C0F5120002C5CDF58B
:102EA20003C5CEF5120002C5CFF503C5D0F5120059
:102EB20002C5CBF503C5CCF5120002C5C5F503C5A5
:102EC200C6F5120002C5C7F503C5C8F5120002C552
:102ED200C9F503C5CAF5120002C5BDF503C5BEF5A5
:102EE2001200036E035001EC17F0120003011E9F43
:102EF200120003011E8F120003011491120003013C
:102F02001481120069841200698E1200699E1200F7
:082F120012001200120012006F
:020000040020DA
:10000000FF0FFF0FFF0FFF0FFF0FFF0FFF0FFF0F80
:10001000FF0FFF0FFF0FFF0FFF0FFF0FFF0FFF0F70
:020000040030CA
:0A0000008C1DF7F7ACCFFFFFFFFFE8
:00000001FF
